:020000040800F2
:1000000000000120D9150008B5140008BD1400082F
:10001000C5140008CD140008D51400080000000025
:10002000000000000000000000000000DD140008D7
:10003000EB14000800000000F91400080715000880
:100040002916000829160008291600082916000894
:100050002916000829160008291600082916000884
:100060002916000829160008291600082916000874
:100070002916000829160008291600082916000864
:1000800029160008291600081515000800000000B0
:100090000000000000000000000000002916000819
:1000A0002916000829160008291600082916000834
:1000B0002916000829160008291600082916000824
:1000C0002916000829160008291600082916000814
:1000D000291600082916000829160008000000004B
:1000E000291500082916000829160008000000003C
:1000F00000000000000000000000000029160008B9
:10010000000000002916000829160008291600081A
:1001100000000000000000000000000000000000DF
:1001200029160008291600082916000829160008B3
:100130002916000800000000000000000000000078
:100140000000000000000000000000002916000868
:100150002916000829160008291600082916000883
:100160002916000829160008000000000000000001
:10017000000000000000000000000000000000007F
:100180000000000029160008000000000000000028
:040190002916000824
:1001A00010B5054C237833B9044B13B10448AFF3B1
:1001B00000800123237010BD000200200000000019
:1001C000203F000808B5034B1BB103490348AFF3B8
:1001D000008008BD0000000004020020203F00084D
:1001E000034613F8012B002AFBD1181A0138704777
:1001F00001F0FF01102A2BDB10F0070F08D010F8D8
:10020000013B013A8B422DD010F0070F42B3F6D1DB
:10021000F0B441EA012141EA014122F007047FF0F4
:1002200000070023F0E80256083C85EA010586EA4B
:10023000010685FA47F5A3FA87F586FA47F6A5FA87
:1002400087F68EB9EED1F0BC01F0FF0102F0070293
:1002500032B110F8013B013A83EA010313B1F8D13E
:100260000020704701387047002D06BF354603381F
:10027000073815F0010F07D1013015F4807F02BF58
:10028000013015F4C03F0130F0BC0138704700BFA9
:1002900053B94AB9002908BF00281CBF4FF0FF31ED
:1002A0004FF0FF3000F088B9ADF1080C6DE904CED5
:1002B00000F006F8DDF804E0DDE9022304B0704741
:1002C0002DE9F047089D8E4604468846002B4AD10A
:1002D0008A42174662D9B2FA82F64EB1C6F12003BD
:1002E00001FA06F820FA03F3B74043EA0808B440DD
:1002F0004FEA174E1FFA87FCB8FBFEF1230C0EFBEA
:10030000118843EA084301FB0CF29A4209D9FB1811
:1003100001F1FF3080F0EA809A4240F2E780023932
:100320003B449A1AA3B2B2FBFEF00EFB102243EA42
:10033000024300FB0CFC9C4509D9FB1800F1FF327D
:1003400080F0D6809C4540F2D3803B44023840EA9E
:100350000140A3EB0C0300211DB1F3400022C5E9CD
:100360000032BDE8F0878B4205D90DB1C5E9000127
:1003700000210846F5E7B3FA83F1002946D1734519
:1003800002D3824200F20581841A6EEB030201203F
:100390009046002DE5D0C5E90048E2E7002A00F0CC
:1003A0009080B2FA82F6002E40F0A4808A1A030CE4
:1003B0004FEA174E80B2BCB20121B2FBFEFC0EFB2D
:1003C0001C2243EA024304FB0CF29A4207D9FB18B1
:1003D0000CF1FF3802D29A4200F2E080C4469B1A28
:1003E000B3FBFEF20EFB123340EA034302FB04F4BC
:1003F0009C4207D9FB1802F1FF3002D29C4200F266
:10040000CA8002461B1B42EA0C40A5E7C1F1200648
:100410008B4022FA06F71F430EFA01F420FA06F386
:100420002EFA06FE4FEA1749234300FA01F81FFA95
:1004300087FCBEFBF9F01C0C09FB10EE44EA0E44ED
:1004400000FB0CFEA64502FA01F209D93C1900F1A5
:10045000FF3A80F09C80A64540F2998002383C44E7
:10046000A4EB0E041FFA83FEB4FBF9F309FB13445B
:100470004EEA044403FB0CFCA44508D93C1903F1E3
:10048000FF3E80F08280A4457FD9023B3C4443EA92
:100490000040A4EB0C04A0FB02EC64457346E1466B
:1004A00062D35FD05DB1B8EB030264EB090404FAD8
:1004B00006F622FA01F31E43CC40C5E90064002190
:1004C0004FE7B1FBF2FC010C41EA0E4180B240EA79
:1004D00001423B4638463C46B846BE462026B1FB64
:1004E000F7F1A2EB080241EA0C4166E7014618E782
:1004F00010462CE7C6F120022EFA02F3B740B140B5
:1005000020FA02F24FEA174E0A43B3FBFEF8BCB2E0
:100510000EFB1833110C41EA034108FB04F9B0400B
:1005200089454FEA104380B23ED9791808F1FF3C63
:1005300001D289451FD8A1EB0901B1FBFEF909FBE6
:1005400004F80EFB191192B242EA0142424529D247
:10055000BA1809F1FF31C4D24245C2D2A9F1020151
:100560003A44BEE7F0459DD2BEEB02036CEB070CAC
:100570000138E14696E7A7EB09094944A8F1020CC6
:10058000B1FBFEF909FB04F8DBE773467FE7504651
:1005900066E70846FDE63B44023A33E7ACF1020C5D
:1005A0003B441CE749469CE7A1EB0901C446B1FB6B
:1005B000FEF909FB04F8C4E7704700BF80B500AF3F
:1005C00000F092F8332000F009F9322000F006F92B
:1005D000282000F003F9012000F000F90C2000F0C1
:1005E000FDF8062000F0FAF800BF80BD80B586B0A7
:1005F00000AF786007F10C037A680649184602F0EC
:10060000EFFF07F10C03184600F006F800BF18379B
:10061000BD4680BD383F000890B585B000AF78601A
:100620000023FB7309E0FB7B7A6813441B781846B0
:1006300000F0F4F8FB7B0133FB73FC7B7868FFF779
:10064000CFFD03469C42EED300BF00BF1437BD462A
:1006500090BD80B500AF012000F0C0F800BF80BDA4
:1006600080B582B000AF03460A46FB711346BB71EA
:10067000BB79002B07D1FB7963F07F03DBB218460F
:1006800000F0ACF82BE0BB79012B0BD1FB794033A8
:10069000DBB25BB263F07F035BB2DBB2184600F003
:1006A0009DF81CE0BB79022B0BD1FB791433DBB234
:1006B0005BB263F07F035BB2DBB2184600F08EF8EA
:1006C0000DE0BB79032B0AD1FB795433DBB25BB26B
:1006D00063F07F035BB2DBB2184600F07FF800BF27
:1006E0000837BD4680BD000080B588B000AF07F177
:1006F0000C0300221A605A609A60DA601A610023C3
:10070000BB60344B1B6B334A43F001031363314B23
:100710001B6B03F00103BB60BB6800237B602D4BA8
:100720001B6B2C4A43F0020313632A4B1B6B03F031
:1007300002037B607B6800233B60264B1B6B254AD2
:1007400043F004031363234B1B6B03F004033B6070
:100750003B684FF48073FB6001233B6100237B61A6
:100760000223BB6107F10C0319461B4801F020FE70
:100770004FF40073FB6001233B6100237B61022384
:10078000BB6107F10C031946134801F011FE4FF449
:100790008063FB6001233B6100237B610223BB611B
:1007A00007F10C0319460C4801F002FE00224FF439
:1007B0008061094801F098FF4FF47043FB6007F136
:1007C0000C031946044801F0F3FD00BF2037BD4675
:1007D00080BD00BF003802400004024080B582B0F6
:1007E00000AF0346FB7100224FF480710A4801F00C
:1007F0007BFFFB791B09DBB20421184600F02EF8C1
:10080000FB7903F00F03DBB20421184600F026F851
:1008100000BF0837BD4680BD0004024080B582B0ED
:1008200000AF0346FB7101224FF480710A4801F0CA
:100830005BFFFB791B09DBB20421184600F00EF8C0
:10084000FB7903F00F03DBB20421184600F006F831
:1008500000BF0837BD4680BD0004024080B584B0AB
:1008600000AF03460A46FB711346BB710023FB73BE
:1008700023E0FA79FB7B42FA03F303F00103002B38
:100880000CD1FB7B184A52F82300FB7B174A32F845
:1008900013300022194601F027FF0BE0FB7B124AC0
:1008A00052F82300FB7B114A32F81330012219461B
:1008B00001F01AFFFB7B0133FB73FA7BBB799A4291
:1008C000D7D301224FF40071094801F00DFF012038
:1008D00000F01EFF00224FF40071054801F004FFF4
:1008E00000BF1037BD4680BD000000201000002072
:1008F0000004024080B582B000AF0346FB800A4B83
:100900001B6800225A62084802F094FB00BF064BA5
:100910001B685A6AFB889A42F9D3034802F0E4FB49
:1009200000BF0837BD4680BD9002002080B586B06C
:1009300000AF3B1D00221A605A609A60DA601A61AB
:1009400001237B600023BB600023FB603B1D194635
:10095000034801F02DFD00BF1837BD4680BD00BF24
:100960000000024080B586B000AF3B1D00221A6037
:100970005A609A60DA601A6101237B600123BB60D0
:100980000123FB6000233B613B1D1946034801F036
:100990000FFD00BF1837BD4680BD00BF00000240FC
:1009A00080B500AFFFF7DEFF01220121174801F0FB
:1009B0009BFE00220121154801F096FE122000F056
:1009C000A7FE01220121114801F08EFE1420FFF73D
:1009D00091FFFFF7ABFF00BF01210C4801F06CFE57
:1009E0000346012BF8D000BF0121084801F064FE46
:1009F0000346002BF8D000BF0121044801F05CFE43
:100A00000346012BF8D000BF00BF80BD00000240AC
:100A100080B582B000AF00237B6000233B6025E0FF
:100A200000BF0121154801F047FE0346002BF8D016
:100A30003220FFF75FFF0121104801F03DFE034621
:100A4000012B05D17B685B0043F001037B6002E072
:100A50007B685B007B6000BF0121084801F02CFE31
:100A60000346012BF8D03B6801333B603B68072B02
:100A7000D6DD7B6818460837BD4680BD00000240C1
:100A800080B588B000AF786007F10C0300221A60CF
:100A90005A609A60DA607B68FB6001233B61002347
:100AA0007B6107F10C0319460B4801F047F90A482E
:100AB00000F096FE4FF0FF31074800F078FF06483F
:100AC00001F010F90346FB83034800F03DFFFB8B68
:100AD00018462037BD4680BD4802002080B500AFD3
:100AE000FFF75EFFFFF794FF0346104A1360FFF71E
:100AF0008FFF07EE900AF8EEE77A0D4BC3ED007A10
:100B0000FFF786FF03460B4A1360FFF781FF07EEEE
:100B1000900AF8EEE77A084BC3ED007AFFF778FF0A
:100B20000346DAB2054B1A7000BF80BDDC0200201C
:100B3000E0020020D8020020E4020020E8020020A9
:100B400080B584B000AF0023FB6067E00023BB608A
:100B50005EE0364ABB6852F82300354ABB6832F87B
:100B600013300122194601F0BFFD00237B6028E00D
:100B7000304ABB6852F823207B68C3F1070342FA6E
:100B800003F303F00103002B0CD02B4A7B6852F8CF
:100B900023002A4A7B6832F813300022194601F0FC
:100BA000A3FD0BE0244A7B6852F82300234A7B68AC
:100BB00032F813300122194601F096FD7B680133AB
:100BC0007B607B68072BD3DD184ABB6852F8230093
:100BD000174ABB6832F813300022194601F084FD31
:100BE00000233B600EE0144A3B6852F82300134A8E
:100BF0003B6832F813300122194601F075FD3B685D
:100C000001333B603B68072BEDDDBB680133BB6004
:100C1000BB68072B9DDDFB680133FB60FB68172B6E
:100C200094DD00BF00BF1037BD4680BD44010020E9
:100C3000640100202802002074010020940100209B
:100C400080B584B000AF78600023FB730023BB73D2
:100C50007B682F4A82FB03129210DB17D31AFB73B7
:100C60007A682B4B83FB02139910D317C91A0B46D2
:100C70009B000B445B00D11A0B46BB73BB7B254A20
:100C800052F823309BB201221946234801F02CFD73
:100C900001224FF40061214801F026FD00224FF4AB
:100CA00080511E4801F020FD002000F031FDBB7B8B
:100CB000184A52F823309BB200221946164801F018
:100CC00013FDFB7B134A52F823309BB201221946D5
:100CD000114801F009FD00224FF400610F4801F0B6
:100CE00003FD01224FF480510C4801F0FDFC00206F
:100CF00000F00EFDFB7B074A52F823309BB2002226
:100D00001946054801F0F0FC00BF1037BD4680BD14
:100D10006766666618010020000402400000024079
:100D200080B584B000AF78600023FB6013E0786882
:100D3000FFF786FF01224FF400610B4801F0D4FC5D
:100D400001224FF48051084801F0CEFCFFF7F8FE75
:100D5000FB680133FB60FB68052BE8DD00BF00BFCB
:100D60001037BD4680BD00BF0000024080B483B094
:100D700000AF0346FB80FB88B3F5004F31D0B3F5DD
:100D8000004F35DCB3F5005F03D0B3F5804F12D0D0
:100D90002EE01A4B1B68002B03D1184B01221A605E
:100DA00023E0164B1B68022B1FD1154B1B68013328
:100DB000134A136019E0114B1B68002B03D10F4B32
:100DC00002221A6013E00D4B1B68022B0FD10C4B53
:100DD0001B68002B0BDD0A4B1B68013B084A1360A4
:100DE00005E0064B00221A6002E000BF00E000BFF1
:100DF00000BF0C37BD465DF8047B70471C02002025
:100E00004001002080B483B000AF1B4B1B68A3F5EA
:100E1000FA721346DB009B1A184A82FB03129211E6
:100E2000DB17D31A7B607B68C3F107037B607B68A9
:100E3000002B01DA00237B607B68072B01DD072391
:100E40007B6000233B600DE00D497B68DA003B6866
:100E5000134451F823200B493B6841F823203B6899
:100E600001333B603B68072BEEDD00BF00BF0C3752
:100E7000BD465DF8047B704720020020F11976051D
:100E8000180000202802002080B500AF00F0CEFB43
:100E900000F0F6F800F0F2F900F052F900F0A2F9D3
:100EA000664802F0C7F8FFF789FBFFF7D2FBFFF7B0
:100EB00015FE0120FFF7E4FD03461A46604B1A6059
:100EC0000220FFF7DDFD03461A465E4B1A605E4BBB
:100ED0001B681846FFF724FFFFF794FF01224FF429
:100EE00000415A4801F000FC594B1A68594B1B68E5
:100EF0009A4204DA524B1B68B3F57A6F05DB002285
:100F00004FF40041514801F0EFFB534B1B68002B9D
:100F10000ED100210020FFF7A3FB5048FFF77CFB18
:100F200001210020FFF79CFB4D48FFF775FBC0E750
:100F3000494B1B68012B33D100210020FFF790FBA8
:100F40004848FFF769FB3E4B1B68B3F57A6F19DC25
:100F500001210020FFF784FB4348FFF75DFB0122DE
:100F60004FF40041394801F0BFFB394B1A68394B47
:100F70001B689A429DDB00224FF40041334801F088
:100F8000B3FB96E701210020FFF76AFB3748FFF724
:100F900043FB00224FF400412C4801F0A5FB88E7F9
:100FA0002D4B1B68022B84D1FFF798FD00210020F8
:100FB000FFF756FB2E48FFF72FFB00210A20FFF713
:100FC0004FFB234B1B681846FFF710FB00210D2039
:100FD000FFF746FB2748FFF71FFB01210020FFF723
:100FE0003FFB2548FFF718FB01210A20FFF738FBDC
:100FF000184B1B681846FFF7F9FA01210D20FFF77F
:101000002FFB1E48FFF708FB114B1A68114B1B689A
:101010009A4204DA0A4B1B68B3F57A6F06DB0022AA
:101020004FF40041094801F05FFB05E001224FF455
:101030000041064801F058FB3BE700BF900200204A
:101040002402002020020020DC02002000000240D8
:10105000D8020020400100201C020020583F000858
:101060006C3F0008803F0008943F0008A43F000840
:10107000B43F0008C83F0008D03F0008E03F000828
:1010800080B594B000AF07F120033022002118464C
:1010900002F0C8FA07F10C0300221A605A609A6045
:1010A000DA601A610023BB60234B1B6C224A43F0B9
:1010B00080531364204B1B6C03F08053BB60BB68F0
:1010C00000237B601D4B1B6823F440431B4A43F401
:1010D00000431360194B1B6803F440437B607B683B
:1010E00002233B620123FB6210233B630023BB63AB
:1010F00007F12003184601F029FB0346002B01D01D
:1011000000F03EF90F23FB6000233B6100237B616D
:101110000023BB610023FB6107F10C03002118468B
:1011200001F08CFD0346002B01D000F029F900BF2F
:101130005037BD4680BD00BF0038024000700040FF
:1011400080B584B000AF3B4600221A605A609A60B6
:10115000DA60214B214A1A601F4B00225A601E4B55
:1011600000229A601C4B00221A611B4B00221A7647
:10117000194B002283F82020174B0022DA62164B0D
:10118000174A9A62144B0022DA60134B0122DA618B
:10119000114B002283F830200F4B01225A610E4878
:1011A00000F0DAFA0346002B01D000F0E9F8002342
:1011B0003B6001237B600023BB603B461946064829
:1011C00000F0BCFD0346002B01D000F0D9F800BFB1
:1011D0001037BD4680BD00BF4802002000200140FE
:1011E0000100000F80B586B000AF07F108030022B0
:1011F0001A605A609A60DA603B4600221A605A60B0
:101200001D4B4FF080421A601B4B0F225A601A4B45
:1012100000229A60184B4FF0FF32DA60164B002222
:101220001A61154B00229A61134801F0B3FE034680
:10123000002B01D000F0A4F84FF48053BB6007F1FD
:10124000080319460C4801F076FF0346002B01D035
:1012500000F096F800233B6000237B603B46194674
:10126000054802F04FF90346002B01D000F088F842
:1012700000BF1837BD4680BD9002002080B588B001
:1012800000AF07F10C0300221A605A609A60DA601E
:101290001A610023BB60364B1B6B354A43F00403D5
:1012A0001363334B1B6B03F00403BB60BB68002369
:1012B0007B602F4B1B6B2E4A43F0010313632C4BB7
:1012C0001B6B03F001037B607B6800233B60284BB2
:1012D0001B6B274A43F002031363254B1B6B03F080
:1012E00002033B603B68002249F6F871214801F097
:1012F000FBF900224FF2FF711F4801F0F5F94FF49E
:101300006043FB604FF488133B6100237B6107F16E
:101310000C031946194801F04BF849F6F873FB60C5
:1013200001233B6100237B610023BB6107F10C03B8
:101330001946104801F03CF84FF2FF73FB6001239F
:101340003B6100237B610023BB6107F10C0319465D
:10135000094801F02DF800220021282000F0F1FFBB
:10136000282001F00AF800BF2037BD4680BD00BF2D
:101370000038024000000240000402400008024021
:1013800080B400AF72B600BF00BFFDE780B483B089
:1013900000AF00237B60104B5B6C0F4A43F480432B
:1013A00053640D4B5B6C03F480437B607B680023CC
:1013B0003B60094B1B6C084A43F080531364064B97
:1013C0001B6C03F080533B603B6800BF0C37BD468D
:1013D0005DF8047B704700BF0038024080B58AB0DA
:1013E00000AF786007F1140300221A605A609A6017
:1013F000DA601A617B681B681B4A93422FD1002375
:101400003B611A4B5B6C194A43F480735364174B6E
:101410005B6C03F480733B613B690023FB60134BFF
:101420001B6B124A43F001031363104B1B6B03F059
:101430000103FB60FB6807237B610323BB6100237F
:10144000FB6107F114031946094800F0B1FF0022BF
:101450000021122000F075FF122000F08EFF00BF67
:101460002837BD4680BD00BF002001400038024043
:101470000000024080B485B000AF78607B681B68D4
:10148000B3F1804F0DD10023FB60094B1B6C084A60
:1014900043F001031364064B1B6C03F00103FB6074
:1014A000FB6800BF1437BD465DF8047B704700BF82
:1014B0000038024080B400AF00BFFDE780B400AF49
:1014C00000BFFDE780B400AF00BFFDE780B400AF10
:1014D00000BFFDE780B400AF00BFFDE780B400AF00
:1014E00000BFBD465DF8047B704780B400AF00BF0D
:1014F000BD465DF8047B704780B400AF00BFBD46B9
:101500005DF8047B704780B500AF00F0E1F800BFE4
:1015100080BD000080B500AF024800F0D3FA00BFE4
:1015200080BD00BF4802002080B500AF4FF40050DE
:1015300001F0F4F84FF4804001F0F0F84FF400406F
:1015400001F0ECF800BF80BD80B586B000AF7860D8
:10155000144A154BD31A7B617B693B61134B1B68A3
:10156000002B02D1114B124A1A60104B1A687B688B
:1015700013443A699A4207D202F05CF803460C22FF
:101580001A604FF0FF3309E0084B1B68FB60074B04
:101590001A687B681344054A1360FB6818461837BD
:1015A000BD4680BD0000012000040000EC020020C8
:1015B0004004002080B400AF064BD3F88830054AC1
:1015C00043F47003C2F8883000BFBD465DF8047B69
:1015D000704700BF00ED00E0DFF834D0FFF7EAFF0E
:1015E0000C480D490D4A002302E0D458C45004337E
:1015F000C4188C42F9D30A4A0A4C002301E0136054
:101600000432A242FBD302F01BF8FFF73DFC704707
:1016100000000120000000200002002040400008DF
:10162000000200203C040020FEE7000080B500AF6F
:101630000E4B1B680D4A43F4007313600B4B1B6881
:101640000A4A43F480631360084B1B68074A43F45B
:1016500080731360032000F069FE0F2000F008F88B
:10166000FFF794FE0023184680BD00BF003C0240F7
:1016700080B582B000AF7860124B1A68124B1B78AD
:1016800019464FF47A73B3FBF1F3B2FBF3F3184648
:1016900000F081FE0346002B01D001230EE07B68A1
:1016A0000F2B0AD8002279684FF0FF3000F049FE76
:1016B000064A7B681360002300E0012318460837C0
:1016C000BD4680BDA4010020AC010020A80100207F
:1016D00080B400AF064B1B781A46064B1B681344B8
:1016E000044A136000BFBD465DF8047B704700BF2D
:1016F000AC010020F002002080B400AF034B1B6857
:101700001846BD465DF8047B704700BFF00200201C
:1017100080B584B000AF7860FFF7EEFFB8607B68FB
:10172000FB60FB68B3F1FF3F05D00A4B1B781A46FC
:10173000FB681344FB6000BFFFF7DEFF0246BB6897
:10174000D31AFA689A42F7D800BF00BF1037BD46D7
:1017500080BD00BFAC01002080B584B000AF7860D0
:101760000023FB737B68002B01D1012333E07B68EE
:101770001B6C002B09D17868FFF730FE7B680022D4
:101780005A647B68002283F83C207B681B6C03F062
:101790001003002B18D17B681B6C23F4885323F0B3
:1017A000020343F002027B681A64786800F0E8FBE9
:1017B0007B6800225A647B681B6C23F0030343F0B0
:1017C00001027B681A6401E00123FB737B6800223D
:1017D00083F83C20FB7B18461037BD4680BD0000D7
:1017E00080B485B000AF78600023BB607B6893F85D
:1017F0003C30012B01D1022397E07B68012283F862
:101800003C207B681B689B6803F00103012B18D008
:101810007B681B689A687B681B6842F001029A60CB
:10182000454B1B68454AA2FB03239A0C13465B00F9
:101830001344BB6002E0BB68013BBB60BB68002B8C
:10184000F9D17B681B689B6803F00103012B5FD112
:101850007B681B6C23F4E06323F0010343F4807284
:101860007B681A647B681B685B6803F48063002BE9
:1018700007D07B681B6C23F4405343F480527B6891
:101880001A647B681B6C03F48053B3F5805F06D148
:101890007B685B6C23F006027B685A6402E07B681D
:1018A00000225A647B68002283F83C20244BFB60B2
:1018B0007B681B686FF022021A60FB685B6803F0AC
:1018C0001F03002B0FD17B681B689B6803F04053FC
:1018D000002B29D17B681B689A687B681B6842F0E3
:1018E00080429A6020E07B681B68164A93421BD1B5
:1018F0007B681B689B6803F04053002B14D17B6806
:101900001B689A687B681B6842F080429A600BE013
:101910007B681B6C43F010027B681A647B685B6C0D
:1019200043F001027B685A64002318461437BD4611
:101930005DF8047B704700BFA401002083DE1B43D9
:10194000002301400020014080B483B000AF7860E4
:101950007B6893F83C30012B01D1022321E07B68A6
:10196000012283F83C207B681B689A687B681B68AF
:1019700022F001029A607B681B689B6803F00103F8
:10198000002B09D17B681B6C23F4885323F00103DF
:1019900043F001027B681A647B68002283F83C20D4
:1019A000002318460C37BD465DF8047B704780B5B0
:1019B00084B000AF786039600023FB607B681B68EF
:1019C0009B6803F48063B3F5806F13D17B681B6859
:1019D0009B6803F48073B3F5807F0BD17B681B6C2D
:1019E00043F020027B681A647B68002283F83C2065
:1019F000012363E0FFF780FEF86021E03B68B3F16C
:101A0000FF3F1DD03B68002B07D0FFF775FE024655
:101A1000FB68D31A3A689A4212D27B681B681B682B
:101A200003F00203022B0BD07B681B6C43F0040213
:101A30007B681A647B68002283F83C2003233DE026
:101A40007B681B681B6803F00203022BD6D17B68FE
:101A50001B686FF012021A607B681B6C43F4007203
:101A60007B681A647B681B689B6803F04053002BFB
:101A700023D17B681B7E002B1FD17B681B68DB6A30
:101A800003F47003002B06D07B681B689B6803F48B
:101A90008063002B11D17B681B6C23F480727B6800
:101AA0001A647B681B6C03F48053002B05D17B68A0
:101AB0001B6C43F001027B681A6400231846103740
:101AC000BD4680BD80B586B000AF786000237B61E5
:101AD00000233B617B681B681B68FB607B681B689D
:101AE0005B68BB60FB6803F002037B61BB6803F0CB
:101AF00020033B617B69002B49D03B69002B46D01A
:101B00007B681B6C03F01003002B05D17B681B6CFA
:101B100043F400727B681A647B681B689B6803F05F
:101B20004053002B2BD17B681B7E002B27D17B6879
:101B30001B68DB6A03F47003002B06D07B681B680C
:101B40009B6803F48063002B19D17B681B685A687B
:101B50007B681B6822F020025A607B681B6C23F4B0
:101B600080727B681A647B681B6C03F48053002BC3
:101B700005D17B681B6C43F001027B681A647868AE
:101B800000F0BDF87B681B686FF012021A60FB68FA
:101B900003F004037B61BB6803F080033B617B6956
:101BA000002B57D03B69002B54D07B681B6C03F093
:101BB0001003002B05D17B681B6C43F400527B683B
:101BC0001A647B681B689B6803F44013002B39D1AF
:101BD0007B681B689B6B03F44013002B06D07B686B
:101BE0001B689B6803F48063002B2BD17B681B6808
:101BF0005B6803F48063002B24D17B681B689B68BF
:101C000003F04053002B1DD17B681B7E002B19D1A4
:101C10007B681B685A687B681B6822F080025A60E8
:101C20007B681B6C23F480527B681A647B681B6C96
:101C300003F48073002B05D17B681B6C43F0010219
:101C40007B681A64786800F097FA7B681B686FF00D
:101C50000C021A60FB6803F001037B61BB6803F0B0
:101C600040033B617B69002B17D03B69002B14D0EC
:101C70007B681B681B6803F00103012B0DD17B6897
:101C80001B6C43F480327B681A64786800F041F87A
:101C90007B681B686FF001021A60FB6803F0200389
:101CA0007B61BB6803F080633B617B69002B15D0CF
:101CB0003B69002B12D07B685B6C43F002027B68AF
:101CC0005A647B681B686FF020021A60786800F025
:101CD0002AF87B681B686FF020021A6000BF183773
:101CE000BD4680BD80B483B000AF78607B681B6860
:101CF000DB6C18460C37BD465DF8047B704780B43A
:101D000083B000AF786000BF0C37BD465DF8047B40
:101D1000704780B483B000AF786000BF0C37BD4619
:101D20005DF8047B704780B483B000AF786000BF7B
:101D30000C37BD465DF8047B7047000080B485B069
:101D400000AF786039600023BB607B6893F83C305B
:101D5000012B01D1022305E17B68012283F83C209D
:101D60003B681B68092B25D97B681B68D9683B68D1
:101D70001B689BB21A4613465B0013441E3B0722A6
:101D800002FA03F3DA437B681B680A40DA607B6877
:101D90001B68D9683B689A683B681B689BB2184609
:101DA00003465B0003441E3B9A407B681B680A4362
:101DB000DA6022E07B681B6819693B681B689BB28C
:101DC0001A4613465B001344072202FA03F3DA4370
:101DD0007B681B680A401A617B681B6819693B684D
:101DE0009A683B681B689BB2184603465B00034435
:101DF0009A407B681B680A431A613B685B68062B44
:101E000024D87B681B68596B3B685A6813469B0053
:101E10001344053B1F2202FA03F3DA437B681B6875
:101E20000A405A637B681B68596B3B681B689BB20E
:101E300018463B685A6813469B001344053B00FA5A
:101E400003F27B681B680A435A634CE03B685B689B
:101E50000C2B24D87B681B68196B3B685A681346A7
:101E60009B001344233B1F2202FA03F3DA437B68EF
:101E70001B680A401A637B681B68196B3B681B6808
:101E80009BB218463B685A6813469B001344233B99
:101E900000FA03F27B681B680A431A6323E07B683D
:101EA0001B68D96A3B685A6813469B001344413B40
:101EB0001F2202FA03F3DA437B681B680A40DA62E6
:101EC0007B681B68D96A3B681B689BB218463B68F5
:101ED0005A6813469B001344413B00FA03F27B68A7
:101EE0001B680A43DA62224BFB607B681B68214A4D
:101EF000934209D13B681B68122B05D1FB685B68D4
:101F000043F48002FB685A607B681B68194A93425D
:101F100023D13B681B68102B03D03B681B68112B37
:101F20001BD1FB685B6843F40002FB685A603B68A6
:101F30001B68102B11D1104B1B68104AA2FB032306
:101F40009A0C13469B0013445B00BB6002E0BB6825
:101F5000013BBB60BB68002BF9D17B68002283F892
:101F60003C20002318461437BD465DF8047B7047BB
:101F70000023014000200140A401002083DE1B4318
:101F800080B485B000AF7860794BFB60FB685B681C
:101F900023F44032FB685A60FB685A687B685B68D0
:101FA0001A43FB685A607B681B685A687B681B6829
:101FB00022F480725A607B681B6859687B681B69D1
:101FC0001A027B681B680A435A607B681B685A6860
:101FD0007B681B6822F040725A607B681B685968F6
:101FE0007B689A687B681B680A435A607B681B6839
:101FF0009A687B681B6822F400629A607B681B68A1
:1020000099687B68DA687B681B680A439A607B681A
:102010009B6A584A934222D07B681B689A687B6807
:102020001B6822F070629A607B681B6899687B6805
:102030009A6A7B681B680A439A607B681B689A6887
:102040007B681B6822F040529A607B681B68996825
:102050007B68DA6A7B681B680A439A600FE07B68DA
:102060001B689A687B681B6822F070629A607B68C4
:102070001B689A687B681B6822F040529A607B68F4
:102080001B689A687B681B6822F002029A607B6872
:102090001B6899687B681B7E5A007B681B680A4333
:1020A0009A607B6893F82030002B1BD07B681B68FC
:1020B0005A687B681B6842F400625A607B681B6840
:1020C0005A687B681B6822F460425A607B681B6810
:1020D00059687B685B6A013B5A037B681B680A434B
:1020E0005A6007E07B681B685A687B681B6822F4AB
:1020F00000625A607B681B68DA6A7B681B6822F49E
:102100007002DA627B681B68D96A7B68DB69013B15
:102110001A057B681B680A43DA627B681B689A6849
:102120007B681B6822F400729A607B681B68996860
:102130007B6893F830305A027B681B680A439A60C8
:102140007B681B689A687B681B6822F480629A60CF
:102150007B681B6899687B685B699A027B681B686F
:102160000A439A6000BF1437BD465DF8047B704790
:10217000002301400100000F80B483B000AF7860FD
:1021800000BF0C37BD465DF8047B704780B485B056
:1021900000AF78607B6803F00703FB600C4BDB68E3
:1021A000BB60BA684FF6FF031340BB60FB681A02BE
:1021B000BB68134343F0BF6343F40033BB60044A7E
:1021C000BB68D36000BF1437BD465DF8047B704721
:1021D00000ED00E080B400AF044BDB681B0A03F0A5
:1021E00007031846BD465DF8047B704700ED00E02C
:1021F00080B483B000AF0346FB7197F90730002B22
:102200000BDBFB7903F01F02074997F907305B09E5
:10221000012000FA02F241F8232000BF0C37BD462E
:102220005DF8047B704700BF00E100E080B483B03C
:1022300000AF03463960FB7197F90730002B0ADBCA
:102240003B68DAB20C4997F907301201D2B20B445D
:1022500083F800230AE03B68DAB20849FB7903F00F
:102260000F03043B1201D2B20B441A7600BF0C37A5
:10227000BD465DF8047B704700E100E000ED00E042
:1022800080B489B000AFF860B9607A60FB6803F091
:102290000703FB61FB69C3F10703042B28BF042379
:1022A000BB61FB690433062B02D9FB69033B00E0E9
:1022B00000237B614FF0FF32BB6902FA03F3DA437C
:1022C000BB681A407B699A404FF0FF317B6901FA85
:1022D00003F3D9437B680B40134318462437BD46AC
:1022E0005DF8047B7047000080B582B000AF786075
:1022F0007B68013BB3F1807F01D301230FE00A4AE1
:102300007B68013B53600F214FF0FF30FFF78EFFDA
:10231000054B00229A60044B07221A6000231846DE
:102320000837BD4680BD00BF10E000E080B582B038
:1023300000AF78607868FFF729FF00BF0837BD4617
:1023400080BD80B586B000AF0346B9607A60FB738C
:1023500000237B61FFF73EFF78617A68B96878698E
:10236000FFF78EFF024697F90F3011461846FFF728
:102370005DFF00BF1837BD4680BD80B582B000AF9D
:102380000346FB7197F907301846FFF731FF00BF8E
:102390000837BD4680BD80B582B000AF78607868F0
:1023A000FFF7A2FF034618460837BD4680BD000070
:1023B00080B489B000AF7860396000237B6100236E
:1023C0003B610023BB610023FB6159E10122FB69F2
:1023D00002FA03F37B613B681B687A6913403B6137
:1023E0003A697B699A4240F048813B685B6803F038
:1023F0000303012B05D03B685B6803F00303022B4A
:1024000030D17B689B68BB61FB695B00032202FAE9
:1024100003F3DB43BA691340BB613B68DA68FB69CD
:102420005B0002FA03F3BA691343BB617B68BA69C4
:102430009A607B685B68BB610122FB6902FA03F367
:10244000DB43BA691340BB613B685B681B0903F05F
:102450000102FB6902FA03F3BA691343BB617B68AB
:10246000BA695A603B685B6803F00303032B17D01B
:102470007B68DB68BB61FB695B00032202FA03F344
:10248000DB43BA691340BB613B689A68FB695B0038
:1024900002FA03F3BA691343BB617B68BA69DA6075
:1024A0003B685B6803F00303022B23D1FB69DA0866
:1024B0007B68083253F82230BB61FB6903F00703E5
:1024C0009B000F2202FA03F3DB43BA691340BB619E
:1024D0003B681A69FB6903F007039B0002FA03F3E8
:1024E000BA691343BB61FB69DA087B680832B969D2
:1024F00043F822107B681B68BB61FB695B00032209
:1025000002FA03F3DB43BA691340BB613B685B68C3
:1025100003F00302FB695B0002FA03F3BA69134399
:10252000BB617B68BA691A603B685B6803F440333F
:10253000002B00F0A2800023FB60574B5B6C564AD7
:1025400043F480435364544B5B6C03F48043FB605F
:10255000FB68524AFB699B08023352F82330BB6187
:10256000FB6903F003039B000F2202FA03F3DB4332
:10257000BA691340BB617B68494A934219D07B68B2
:10258000484A934213D07B68474A93420DD07B68F8
:10259000464A934207D07B68454A934201D10423BF
:1025A00008E0072306E0032304E0022302E00123FE
:1025B00000E00023FA6902F0030292009340BA6936
:1025C0001343BB613549FB699B080233BA6941F883
:1025D0002320384B9B68BB613B69DB43BA691340DE
:1025E000BB613B685B6803F48013002B03D0BA69BE
:1025F0003B691343BB612F4ABB6993602D4BDB687A
:10260000BB613B69DB43BA691340BB613B685B68F4
:1026100003F40013002B03D0BA693B691343BB6179
:10262000244ABB69D360234B5B68BB613B69DB43D6
:10263000BA691340BB613B685B6803F40033002B4D
:1026400003D0BA693B691343BB611A4ABB69536043
:10265000184B1B68BB613B69DB43BA691340BB6124
:102660003B685B6803F48033002B03D0BA693B6995
:102670001343BB610F4ABB691360FB690133FB6104
:10268000FB690F2B7FF6A2AE00BF00BF2437BD460B
:102690005DF8047B704700BF0038024000380140FD
:1026A000000002400004024000080240000C02400A
:1026B00000100240003C014080B485B000AF78605B
:1026C0000B467B807B681A697B881340002B02D005
:1026D0000123FB7301E00023FB73FB7B18461437D7
:1026E000BD465DF8047B704780B483B000AF78606E
:1026F0000B467B8013467B707B78002B03D07A8857
:102700007B689A6103E07B881A047B689A6100BF4A
:102710000C37BD465DF8047B7047000080B582B081
:1027200000AF0346FB80084B5A69FB881340002B1F
:1027300006D0054AFB885361FB881846FEF716FB56
:1027400000BF0837BD4680BD003C014080B586B063
:1027500000AF78607B68002B01D1012367E27B68C2
:102760001B6803F00103002B75D0884B9B6803F0B6
:102770000C03042B0CD0854B9B6803F00C03082B37
:1027800012D1824B5B6803F48003B3F5800F0BD149
:102790007E4B1B6803F40033002B5BD07B685B68C7
:1027A000002B57D1012342E27B685B68B3F5803F81
:1027B00006D1764B1B68754A43F4803313601DE0E5
:1027C0007B685B68B3F5A02F0CD1704B1B686F4A18
:1027D00043F4802313606D4B1B686C4A43F48033D1
:1027E00013600BE0694B1B68684A23F48033136065
:1027F000664B1B68654A23F4802313607B685B6823
:10280000002B13D0FEF778FF386108E0FEF774FF65
:1028100002463B69D31A642B01D9032307E25B4BC1
:102820001B6803F40033002BF0D014E0FEF764FFC4
:10283000386108E0FEF760FF02463B69D31A642B5B
:1028400001D90323F3E1514B1B6803F40033002B40
:10285000F0D100E000BF7B681B6803F00203002B8F
:1028600063D04A4B9B6803F00C03002B0BD0474B03
:102870009B6803F00C03082B1CD1444B5B6803F4EA
:102880008003002B16D1414B1B6803F00203002B81
:1028900005D07B68DB68012B01D00123C7E13B4BEE
:1028A0001B6823F0F8027B681B69DB003749134380
:1028B0000B603AE07B68DB68002B20D0344B0122B0
:1028C0001A60FEF719FF386108E0FEF715FF0246AF
:1028D0003B69D31A022B01D90323A8E12B4B1B68B8
:1028E00003F00203002BF0D0284B1B6823F0F80202
:1028F0007B681B69DB00254913430B6015E0244B03
:1029000000221A60FEF7F8FE386108E0FEF7F4FED8
:1029100002463B69D31A022B01D9032387E11B4BE3
:102920001B6803F00203002BF0D17B681B6803F0E7
:102930000803002B36D07B685B69002B16D0154B43
:1029400001221A60FEF7D8FE386108E0FEF7D4FED7
:1029500002463B69D31A022B01D9032367E10B4BD3
:102960005B6F03F00203002BF0D01BE0094B002249
:102970001A60FEF7C1FE38610EE0FEF7BDFE0246AA
:102980003B69D31A022B07D9032350E100380240D8
:1029900000004742800E4742884B5B6F03F0020302
:1029A000002BEAD17B681B6803F00403002B00F0C6
:1029B00097800023FB75814B1B6C03F08053002B29
:1029C0000FD10023BB607D4B1B6C7C4A43F08053CE
:1029D00013647A4B1B6C03F08053BB60BB6801230C
:1029E000FB75774B1B6803F48073002B18D1744B75
:1029F0001B68734A43F480731360FEF77DFE3861F1
:102A000008E0FEF779FE02463B69D31A022B01D992
:102A100003230CE16A4B1B6803F48073002BF0D096
:102A20007B689B68012B06D1644B1B6F634A43F0A4
:102A3000010313671CE07B689B68052B0CD15F4B7F
:102A40001B6F5E4A43F0040313675C4B1B6F5B4ACA
:102A500043F0010313670BE0584B1B6F574A23F0F9
:102A600001031367554B1B6F544A23F0040313678C
:102A70007B689B68002B15D0FEF73EFE38610AE0AC
:102A8000FEF73AFE02463B69D31A41F2883293427E
:102A900001D90323CBE0494B1B6F03F00203002B4A
:102AA000EED014E0FEF728FE38610AE0FEF724FEBF
:102AB00002463B69D31A41F28832934201D903237B
:102AC000B5E03E4B1B6F03F00203002BEED1FB7D04
:102AD000012B05D1394B1B6C384A23F0805313640A
:102AE0007B689B69002B00F0A180344B9B6803F04E
:102AF0000C03082B5CD07B689B69022B41D1314BC6
:102B000000221A60FEF7F8FD386108E0FEF7F4FDD8
:102B100002463B69D31A022B01D9032387E0274BD6
:102B20001B6803F00073002BF0D17B68DA697B68C7
:102B30001B6A1A437B685B6A9B011A437B689B6A2A
:102B40005B08013B1B041A437B68DB6A1B061B49BD
:102B500013434B601B4B01221A60FEF7CDFD386119
:102B600008E0FEF7C9FD02463B69D31A022B01D9E2
:102B700003235CE0114B1B6803F00073002BF0D0C3
:102B800054E0104B00221A60FEF7B6FD386108E0F1
:102B9000FEF7B2FD02463B69D31A022B01D903238B
:102BA00045E0064B1B6803F00073002BF0D13DE0BD
:102BB0007B689B69012B07D1012338E00038024074
:102BC00000700040600047421B4B5B68FB607B6805
:102BD0009B69012B28D0FB6803F480027B68DB69CA
:102BE0009A4221D1FB6803F03F027B681B6A9A423C
:102BF0001AD1FA6847F6C07313407A68526A920194
:102C0000934211D1FB6803F440327B689B6A5B08F6
:102C1000013B1B049A4207D1FB6803F070627B689A
:102C2000DB6A1B069A4201D0012300E0002318460C
:102C30001837BD4680BD00BF0038024080B584B063
:102C400000AF786039607B68002B01D10123CCE0B4
:102C5000684B1B6803F007033A689A420CD9654B2E
:102C60003A68D2B21A70634B1B6803F007033A68E4
:102C70009A4201D00123B8E07B681B6803F002038D
:102C8000002B20D07B681B6803F00403002B05D0C9
:102C9000594B9B68584A43F4E05393607B681B6828
:102CA00003F00803002B05D0534B9B68524A43F4B2
:102CB00060439360504B9B6823F0F0027B689B68F5
:102CC0004D4913438B607B681B6803F00103002BA5
:102CD00044D07B685B68012B07D1474B1B6803F42A
:102CE0000033002B19D101237FE07B685B68022B46
:102CF00003D07B685B68032B07D13F4B1B6803F055
:102D00000073002B09D101236FE03B4B1B6803F0DC
:102D10000203002B01D1012367E0374B9B6823F0AE
:102D200003027B685B68344913438B60FEF7E4FC65
:102D3000F8600AE0FEF7E0FC0246FB68D31A41F2B5
:102D40008832934201D903234FE02B4B9B6803F059
:102D50000C027B685B689B009A42EBD1254B1B6899
:102D600003F007033A689A420CD2224B3A68D2B277
:102D70001A70204B1B6803F007033A689A4201D08F
:102D8000012332E07B681B6803F00403002B08D0AA
:102D9000194B9B6823F4E0527B68DB6816491343A8
:102DA0008B607B681B6803F00803002B09D0124B73
:102DB0009B6823F460427B681B69DB000E49134368
:102DC0008B6000F021F802460B4B9B681B0903F057
:102DD0000F030A49CB5C22FA03F3094A1360094B3B
:102DE0001B681846FEF744FC002318461037BD4602
:102DF00080BD00BF003C024000380240EC3F0008AC
:102E0000A4010020A80100202DE9B04F90B000AF30
:102E100000237B630023FB6300233B630023BB632E
:102E2000594B9B6803F00C03082B0DD0082B00F2C4
:102E3000A180002B02D0042B03D09BE0534BBB633B
:102E40009BE0534BBB6398E04F4B5B6803F03F0341
:102E50007B634D4B5B6803F48003002B28D04A4B07
:102E60005B689B0900223B627A623B6AC3F30800FD
:102E70000021474B03FB01F2002300FB03F3134443
:102E8000434AA0FB0212FA620A46BA62FA6A134483
:102E9000FB627B6B0022BB61FA61D7E90623D7E9AD
:102EA0000A01FDF7F5F902460B461346FB6353E0B2
:102EB000354B5B689B0900223B617A613B69C3F338
:102EC000080A4FF0000B52465B464FF000004FF0EF
:102ED0000001590141EAD261500102460B46B2EBB2
:102EE0000A0863EB0B094FF000024FF000034FEAB2
:102EF000891343EA98634FEA8812B2EB080463EB44
:102F000009054FF000024FF00003EB0043EA547351
:102F1000E20014461D4614EB0A033B6045EB0B032D
:102F20007B604FF000024FF00003D7E900452946CF
:102F30008B02214643EA915321468A0210461946E4
:102F40007B6B0022BB60FA60D7E90223FDF7A0F992
:102F500002460B461346FB630B4B5B681B0C03F0EE
:102F6000030301335B003B63FA6B3B6BB2FBF3F390
:102F7000BB6302E0054BBB6300BFBB6B1846403729
:102F8000BD46BDE8B08F00BF003802400024F40009
:102F900040787D0180B582B000AF78607B68002BFF
:102FA00001D1012341E07B6893F83D30DBB2002B77
:102FB00006D17B68002283F83C207868FEF75AFA35
:102FC0007B68022283F83D207B681A687B680433A3
:102FD0001946104600F076F97B68012283F84620F6
:102FE0007B68012283F83E207B68012283F83F2022
:102FF0007B68012283F840207B68012283F841200E
:103000007B68012283F842207B68012283F84320F9
:103010007B68012283F844207B68012283F84520E5
:103020007B68012283F83D20002318460837BD46FF
:1030300080BD000080B485B000AF78607B6893F8F5
:103040003D30DBB2012B01D001233CE07B68022242
:1030500083F83D207B681B681E4A934218D07B682A
:103060001B68B3F1804F13D07B681B681A4A9342E8
:103070000ED07B681B68194A934209D07B681B6895
:10308000174A934204D07B681B68164A934211D1B9
:103090007B681B689B6803F00703FB60FB68062BDB
:1030A00010D07B681B681A687B681B6842F00102BD
:1030B0001A6007E07B681B681A687B681B6842F02F
:1030C00001021A60002318461437BD465DF8047BE0
:1030D000704700BF000001400004004000080040AD
:1030E000000C00400040014080B483B000AF786025
:1030F0007B681B681A6A41F211131340002B0FD131
:103100007B681B681A6A40F244431340002B07D1C6
:103110007B681B681A687B681B6822F001021A60D2
:103120007B68012283F83D20002318460C37BD46FA
:103130005DF8047B704780B584B000AF786039607B
:103140000023FB737B6893F83C30012B01D10223F1
:10315000B4E07B68012283F83C207B68022283F87C
:103160003D207B681B689B68BB60BB6823F07703CE
:10317000BB60BB6823F47F43BB607B681B68BA6895
:103180009A603B681B68B3F5005F3ED0B3F5005F03
:1031900000F28780B3F5805F00F08680B3F5805F32
:1031A0007FD8702B1AD0702B7BD8602B50D0602B1F
:1031B00077D8502B3CD0502B73D8402B58D0402B75
:1031C0006FD8302B64D0302B6BD8202B60D0202BC5
:1031D00067D8002B5CD0102B5AD062E07B6818684F
:1031E0003B6899683B685A683B68DB6800F06AF99D
:1031F0007B681B689B68BB60BB6843F07703BB6060
:103200007B681B68BA689A604FE07B6818683B6807
:1032100099683B685A683B68DB6800F053F97B6843
:103220001B689A687B681B6842F480429A603CE0A5
:103230007B6818683B6859683B68DB681A4600F091
:10324000C7F87B681B685021184600F020F92CE075
:103250007B6818683B6859683B68DB681A4600F071
:10326000E6F87B681B686021184600F010F91CE046
:103270007B6818683B6859683B68DB681A4600F051
:10328000A7F87B681B684021184600F000F90CE0A5
:103290007B681A683B681B681946104600F0F7F80F
:1032A00003E00123FB7300E000BF7B68012283F889
:1032B0003D207B68002283F83C20FB7B18461037BA
:1032C000BD4680BD80B485B000AF786039607B6852
:1032D0001B68FB607B68374A93420FD07B68B3F171
:1032E000804F0BD07B68344A934207D07B68334AC7
:1032F000934203D07B68324A934208D1FB6823F0A3
:103300007003FB603B685B68FA681343FB607B6893
:10331000284A93421BD07B68B3F1804F17D07B685B
:10332000254A934213D07B68244A93420FD07B688E
:10333000234A93420BD07B68224A934207D07B6892
:10334000214A934203D07B68204A934208D1FB680C
:1033500023F44073FB603B68DB68FA681343FB604F
:10336000FB6823F080023B685B691343FB603B68AA
:103370009A687B68DA623B681A687B689A627B6845
:103380000C4A934203D13B681A697B681A637B68D5
:103390001B6843F004027B681A607B6801225A6153
:1033A0007B68FA681A6000BF1437BD465DF8047B7D
:1033B000704700BF000001400004004000080040CA
:1033C000000C004000400140004401400048014022
:1033D00080B487B000AFF860B9607A60FB681B6AA0
:1033E0007B61FB681B6A23F00102FB681A62FB68C1
:1033F0009B693B613B6923F0F0033B617B681B01E8
:103400003A6913433B617B6923F00A037B617A6964
:10341000BB6813437B61FB683A699A61FB687A6910
:103420001A6200BF1C37BD465DF8047B704780B44C
:1034300087B000AFF860B9607A60FB681B6A7B6197
:10344000FB681B6A23F01002FB681A62FB689B6929
:103450003B613B6923F470433B617B681B033A6922
:1034600013433B617B6923F0A0037B61BB681B01B5
:103470007A6913437B61FB683A699A61FB687A69F0
:103480001A6200BF1C37BD465DF8047B704780B4EC
:1034900085B000AF786039607B689B68FB60FB6833
:1034A00023F07003FB603A68FB68134343F00703A3
:1034B000FB607B68FA689A6000BF1437BD465DF810
:1034C000047B704780B487B000AFF860B9607A6061
:1034D0003B60FB689B687B617B6923F47F437B6176
:1034E0003B681A027B681A43BB6813437A6913432B
:1034F0007B61FB687A699A6000BF1C37BD465DF846
:10350000047B704780B485B000AF786039607B6819
:1035100093F83C30012B01D1022350E07B6801225B
:1035200083F83C207B68022283F83D207B681B687F
:103530005B68FB607B681B689B68BB60FB6823F073
:103540007003FB603B681B68FA681343FB607B6891
:103550001B68FA685A607B681B681C4A934218D043
:103560007B681B68B3F1804F13D07B681B68184AD7
:1035700093420ED07B681B68164A934209D07B6841
:103580001B68154A934204D07B681B68134A934218
:103590000CD1BB6823F08003BB603B685B68BA68F2
:1035A0001343BB607B681B68BA689A607B68012222
:1035B00083F83D207B68002283F83C2000231846D6
:1035C0001437BD465DF8047B704700BF0000014022
:1035D0000004004000080040000C00400040014092
:1035E0000EB410B59DB01FAB029006906FF0004175
:1035F0000A48079104910A4953F8042B05910024C5
:1036000002A9006801931B9400F094F9029B1C70BE
:103610001DB0BDE8104003B0704700BFB0010020EE
:103620000802FFFF02440346934200D1704703F8AB
:10363000011BF9E7014B1868704700BFB00100207B
:1036400070B50D4D0D4C641BA4100026A64209D187
:103650000B4D0C4C00F064FC641BA4100026A64229
:1036600005D170BD55F8043B98470136EEE755F893
:10367000043B98470136F2E738400008384000081C
:10368000384000083C4000087047704738B5054690
:10369000002941D051F8043C0C1F002BB8BFE4189E
:1036A00000F0E0F81D4A136833B9636014602846DF
:1036B000BDE8384000F0DCB8A34208D920682118E2
:1036C0008B4201BF19685B6809182160EDE71A4653
:1036D0005B680BB1A342FAD911685018A0420BD114
:1036E00020680144501883421160E0D118685B687B
:1036F000536008441060DAE702D90C232B60D6E748
:10370000206821188B4204BF19685B68636004BF9E
:10371000091821605460CAE738BD00BF3804002092
:1037200070B50F4E0C463168054611B900F0A4FB88
:1037300030602146284600F09FFB431C03D14FF028
:10374000FF34204670BDC41C24F00304A042F8D00E
:10375000211A284600F090FB0130F2D1EFE700BFBC
:10376000340400202DE9F843CD1C25F0030508356D
:103770000C2D38BF0C25002D064601DBA94204D9CB
:103780000C2333600020BDE8F883DFF8D48000F01C
:1037900069F8D8F800301C4644BB29463046FFF78C
:1037A000BFFF431C044658D1D8F800402746002FDD
:1037B00043D1002C4BD023683946304604EB030933
:1037C00000F05AFB814542D121686D1A29463046E6
:1037D000FFF7A6FF01303AD023682B442360D8F8C6
:1037E00000305A6862BBC8F800700FE02268521BB4
:1037F00020D40B2A17D96119A342256018BF59603C
:10380000636808BFC8F8001062514B60304600F092
:103810002FF804F10B00231D20F00700C21A1CBF73
:103820001B1AA350AFE76268A3420CBFC8F8002080
:103830005A60EBE723466468AEE73C467F68B6E72C
:103840001A465B68A342FBD100235360DEE70C23DA
:103850003360304600F00CF894E70560D6E700BF0F
:10386000380400200148FFF70FBF00BF30040020DC
:103870000148FFF70ABF00BF300400202DE9F047E0
:103880008E681F46BE420B6882460C4690462DD875
:10389000B1F90C2012F4906F26D06569096905EB27
:1038A0004505A3EB010905EBD5757B1C4B446D1059
:1038B0009D4238BF1D46530527D52946FFF752FFC5
:1038C000064660B321694A4600F0E6FAA38923F46C
:1038D000906343F08003A381266165614E44A5EBAC
:1038E00009052660A5603E46BE4200D93E462068D6
:1038F0003246414600F0A6FAA3689B1BA3602368EA
:10390000334423600020BDE8F0872A4600F0D2FA55
:1039100006460028E0D121695046FFF7B7FE0C2388
:10392000CAF80030A38943F04003A3814FF0FF3071
:10393000E9E700002DE9F04F98468B891B069DB002
:1039400007460D46144610D50B6973B94021FFF7A1
:1039500009FF2860286130B90C233B604FF0FF302D
:103960001DB0BDE8F08F40236B6100230993202335
:103970008DF82930CDF80C803023DFF89C818DF84C
:103980002A304FF0010923469A4613F8012B0AB159
:10399000252AF9D1BAEB040B0BD05B462246294607
:1039A0003846FFF76BFF013000F0A780099A5A44B0
:1039B00009929AF80030002B00F09F8000234FF00E
:1039C000FF32CDE905230AF1010A049307938DF82C
:1039D00053301A935446052214F8011B4E48FCF745
:1039E00007FC049AD8B9D00644BF20238DF8533081
:1039F000110744BF2B238DF853309AF800302A2B3F
:103A000015D0079A544600204FF00A0C214611F8B1
:103A1000013B303B092B4BD9B0B1079214E0A0EB2E
:103A2000080309FA03F313430493A246D2E7039B66
:103A3000191D1B680391002BBBBF5B4242F00202C1
:103A400007930793B8BF049223782E2B0AD163788B
:103A50002A2B32D1039B1A1D1B68039243EAE3739E
:103A600002340593DFF8C0A0217803225046FCF70A
:103A7000BFFB38B1049BA0EB0A00402282401343F5
:103A80000134049314F8011B24488DF828100622F1
:103A9000FCF7AEFB002836D0214B1BBB039B073342
:103AA00023F0070308330393099B334409936AE720
:103AB0000CFB02320C460120A8E7002301340593D9
:103AC00019464FF00A0C204610F8012B303A092A0B
:103AD00003D9002BC6D00591C4E70CFB0121044695
:103AE0000123F0E703AB00932A460E4B04A93846A6
:103AF000AFF30080421C0646D6D1AB895B063FF58A
:103B00002DAF09982CE703AB00932A46054B04A977
:103B1000384600F079F8EDE7FC3F00080640000861
:103B2000000000007D380008024000082DE9F04741
:103B3000164698468A680B69DDF820909342B8BF14
:103B40001346336091F8432007460C460AB101330F
:103B500033602368990642BF3368023333602568B7
:103B600015F0060506D104F1190AE36832689B1ABC
:103B7000AB4226DC94F843302268003B18BF012397
:103B800092062BD404F1430241463846C84701301F
:103B90001ED02368226903F00603042B02BFE568E8
:103BA0003368ED1AA3680CBF25EAE575002593423A
:103BB000C4BF9B1AED1800261A34B5421AD1002052
:103BC00008E00123524641463846C847013003D138
:103BD0004FF0FF30BDE8F0870135C6E7E1185A1C09
:103BE000302081F84300224494F8451082F84310B5
:103BF0000233C7E70123224641463846C847013011
:103C0000E6D00136D9E700002DE9FF470F7E0C9E74
:103C1000782F914680460C469A4601F1430207D818
:103C2000622F0AD8002F00F0D180582F00F0B88002
:103C300004F1420684F842703AE0A7F16303152BC1
:103C4000F6D801A151F823F0A13C0008B53C0008CA
:103C5000313C0008313C0008313C0008313C000890
:103C6000B53C0008313C0008313C0008313C0008FC
:103C7000313C0008B33D0008DF3C00086D3D000802
:103C8000313C0008313C0008D53D0008313C0008BB
:103C9000DF3C0008313C0008313C0008753D00085D
:103CA00033681A1D1B68326004F1420684F8423002
:103CB00001239CE033682068191D3160060601D598
:103CC0001D6803E04506FBD5B3F90050002D03DA6B
:103CD0002D236D4284F8433058480A2311E02168AF
:103CE0003368080653F8045B02D4490648BFADB2F6
:103CF0006F2F5248336014BF0A230823002184F831
:103D000043106668A660002E05DB21682E4321F073
:103D1000040121604BD01646B5FBF3F103FB1157AC
:103D2000C75D06F8017D2F46BB420D46F4D9082B2E
:103D30000BD12368DF0708D5236961689942DEBF8C
:103D4000302306F8013C06F1FF36921B2261CDF8C4
:103D500000A04B4603AA21464046FFF7E7FE01308C
:103D60004AD14FF0FF3004B0BDE8F087236843F03C
:103D7000200323603248782784F84570236831682F
:103D80001F0651F8045B02D45F0648BFADB2316034
:103D9000D90744BF43F0200323601DB11023ADE7D2
:103DA0002648E9E7236823F020032360F6E7164658
:103DB000BDE7336825686169181D30602E061B68F1
:103DC00001D5196002E06806FBD519800023236144
:103DD0001646BCE733681A1D32601E68626800210F
:103DE0003046FCF705FA08B1801B60606368236108
:103DF000002384F84330AAE7236932464946404607
:103E0000D0470130ADD023689B0713D4E068039BF3
:103E10009842B8BF1846A6E70123324649464046B5
:103E2000D04701309DD00135E36803995B1AAB425E
:103E3000F2DCEBE7002504F11906F5E70D40000878
:103E40001E400008884210B501EB020402D98442EA
:103E5000234607D8431EA14208D011F8012B03F8CE
:103E6000012FF8E7024401468A4200D110BD13F841
:103E7000014D02F8014DF7E738B5064D0023044621
:103E800008462B60FDF760FB431C02D12B6803B191
:103E9000236038BD2C0400200A44914200F1FF3316
:103EA00000D1704710B511F8014B03F8014F914252
:103EB000F9D110BD2DE9F041074614460D4621B950
:103EC000BDE8F0411146FFF74DBC2AB9FFF7DEFB14
:103ED00025462846BDE8F08100F01AF884420646DF
:103EE00002D8B4EB500FF4D821463846FFF73AFC1D
:103EF000804608B94546ECE7B4422246294628BF29
:103F00003246FFF7C9FF29463846FFF7BFFBF1E706
:103F100051F8043C181F002BBCBF0B58C018704749
:103F2000F8B500BFF8BC08BC9E467047F8B500BFA6
:083F3000F8BC08BC9E46704776
:103F380025640000312E204B686F6E67206B68691E
:103F480000000000322E204E6869657420646F00FE
:103F5800312E204B686F6E67206B68692020202007
:103F680020200000322E204E6869657420646F207E
:103F780020202020202000004B686F6E67206B688F
:103F8800693A20202020202020200000546F74202F
:103F980020202020202020202020200054652020C0
:103FA8002020202020202020202000004E68696545
:103FB8007420646F3A202020202020200000000078
:103FC800432020202020000043616E682062616F3A
:103FD8003A202020200000004320202020202020FC
:103FE80000000000000000000000000001020304BF
:103FF80006070809232D302B2000686C4C006566E5
:104008006745464700303132333435363738394121
:104018004243444546003031323334353637383937
:0840280061626364656600003B
:08403000B0C1FF7F0100000098
:04403800C5010008B6
:04403C00A1010008D6
:104040000004024000040240000402400004024058
:104050000010002000400080000000000000000070
:104060000000000000000000000000000000000050
:1040700000000000800000000000000000000000C0
:104080000000000000000000000000000000000030
:1040900040000000C0000000000000000000000020
:1040A00000000000000000000000000020000000F0
:1040B00060000000E00000000000000000000000C0
:1040C00000000000000000001000000030000000B0
:1040D00070000000F0000000000000000000000080
:1040E0000000000008000000180000003800000078
:1040F00078000000F8000000000000000000000050
:10410000040000000C0000001C0000003C00000047
:104110007C000000FC000000000000000200000025
:10412000060000000E0000001E0000003E0000001F
:104130007E000000FE0000000100000003000000FF
:10414000070000000F0000001F0000003F000000FB
:104150007F000000FF0000003F000000060000009C
:104160005B0000004F000000660000006D000000D2
:104170007D000000070000007F0000006F000000CD
:104180002800000000040240000402400004024035
:104190000004024000040240000402400004024007
:1041A000000402400100020004000800100020008A
:1041B0004000800000000240000002400000024079
:1041C00000000240000002400000024000000240E7
:1041D00000000240080010002000400080000001A4
:1041E000000200040024F4001000000001000000A0
:1041F000B401002000000000F40200205C03002055
:10420000C4030020000000000000000000000000C7
:10421000000000000000000000000000000000009E
:10422000000000000000000000000000000000008E
:10423000000000000000000000000000000000007E
:04000005080015D901
:00000001FF
